:100637000062003F00000000000C02011D1F001EA9
:1006470059740128502D401B40707BC03CCA00C123
:10065700000000E4014FC080304000FF40A75774FE
:10066700F3334D150F0000330000000000000000B9
:100677000E0000000000000000000200000900005A
:10068700000000E0002C4F0142560010001000044B
:100697000001F080804803C03A3EE8800080502087
:1006A700642040600400000000035003500350031F
:1006B700400340034003400300034003400340025C
:1006C700B0032002C0028003F00280028002800291
:1006D7008003200300032002A0036002800330038D
:1006E70040035003400350030000010102010202CE
:1006F700030102020302030304C33C956A3675C56E
:100707002A000000000000000000000000000000B8
:100717000000000000001520253035404550556089
:100727006570758085FF83DF1732094ED1E7CD8A63
:1007370091C6D5C4C44021184E5586F4DC8A15A746
:10074700EC92DF93533018CA34BFA2C759678FBAE8
:100757000D6DD82D7D540A57977039D27AEA243314
:0507670085ED9A1DE084
:1009D800120CA412000E120E1A7F0A120E94120C98
:1009E80015EF6003120F517D607F01120E557F5085
:1009F800120ED030B50678A776018004E478A7F601
:100A080078A7E6602B7D027F0A120E557D1D7F0BAD
:100A1800120E557D097F0C120E557FD0120003A2CD
:100A280092B340FB7FA01200037F05120E9480EA68
:100A38007D027F0A120E557D1D7F0B120E557D0516
:100A48007F0C120E557FC01200037FA01200037F97
:060A580003120E9480EF72
:100CA4007580FF7590FF75A0FF75B0FF75D17B75DA
:100CB400D9F375A1FF75E1FF75D2FF75DAFF75A24F
:100CC400FF75E2FF75D3FF75DBFF75A3FF75E3FFC7
:010CD40022FD
:10000E00C28CE58954F04401F589758CFA758ACB5A
:05001E00C28DD2A922F1
:03000B00020917D0
:10091700C0E0C0F0C083C082C0D075D000C000C0A6
:1009270001C002C003C004C005C006C007C28D7560
:100937008CFA758ACB0520E520B43203753D01E5B5
:1009470020B402037523010522E52270020521C3A5
:1009570094F4E5219401405E752100752200752409
:10096700F178257C007D007B007A0079AE7E007FE0
:100977000212045378277C007D007B007A0079A857
:100987007E007F0212045378297C007D007B007A69
:100997000079B17E007F02120453782B7C007D0022
:1009A7007B007A0079AA7E007F04120453753E0CFF
:1009B700754024852499D007D006D005D004D003EC
:1009C700D002D001D000D0D0D082D083D0F0D0E0F8
:0109D70032ED
:100E1A0043BB01E4F58775984075C83075CBFF75FB
:090E2A00CAF3D2CAD29CD2AC2258
:03002300020D3794
:100D3700C0E0C0D075D01830990FC299153EE53E76
:100D470060070540A840E6F599309802C298D0D0D0
:030D5700D0E032B7
:0E0F0C00C28C758CFA758AC6752002D28C22B2
:020F510080FE20
:060F4B00E4FDFF020E555B
:060CD5008B498A4A894B9D
:100CDB00C2837F06120DE4E4F54CAB49054BE54BA3
:100CEB00AA4A7002054A14F9120479FF120DE405A1
:0A0CFB004CE54CC3940840E2D2839C
:010D050022CB
:060D06008B498A4A894B6B
:100D0C00C2837F46120DE4E4F54C120DC1AB4905CC
:100D1C004BE54BAA4A7002054A14F9EF12049205EE
:0A0D2C004CE54CC3940840E2D2836A
:010D3600229A
:020DFF008F0A59
:100E0100EDC454F0FF90066CE493540F4FFD7F3511
:080E1100120E55AF0A120EFD8E
:010E190022B6
:040D7D0093FDAB49EE
:100D81008F518D52EBC454F0FF90066CE493540FD5
:0E0D91004FFD7F35120E55AD52AF51020E557B
:090E4C00E54990063793FDAF491A
:0F0E55008D54C283120DE4AF54120DE4D28322E8
:0E0EFD00C283EF4440FF120DE4120DC1D283F8
:010F0B0022C3
:030DE100ED93FF90
:100DE400E4FEEF30E704D2818002C28100D28000A9
:0A0DF400C280EF25E0FF0EBE08E804
:010DFE0022D2
:100DC100D28153D1FDE4FEEF25E03081054401FFDE
:0F0DD1008001FFD28000C2800EBE08EB43D1022A
:010DE00022F0
:0E0EC2007F3F7E00120E647FB01200037F504F
:070ED000AD077F0E020E5575
:100C1500D283C280D281D293D282D292120F4B7BE1
:100C2500FF7A077900120CD57B007A007941120D05
:100C350006E4FFEF90070093FE74412FF8E6FDEE02
:100C45006D60037F01220FBF08E912076C1204E4EF
:0B0C5500120A5EEF60037F01227F00A7
:010C60002271
:020D9F008F0BB8
:100DA1007FE0120003C2837F05120DE4E4FDEDC371
:0F0DB100950B500990072C120DE10D80F1D283A4
:010DC0002210
:08000300C283120DE4D2832236
:100AE10078AF06E618700106E4FD7FF0120003C23C
:100AF100837F45120DE4E4F508120DC174552508F4
:100B0100F8A607E50890072C936FFE6033F5097886
:100B1100AA1204B2E509C4540F9006F093FFE50947
:100B2100540F93FDEF2DFFE433FEE4FCFDEB2FFFAB
:100B3100EA3EFEED39FDEC38FC78AA1204BF7D01D6
:100B41000508E508C3944040B0D283ED600878B24F
:060B510006E61870010623
:010B5700227B
:020BC400AD077B
:100BC6007F0E120E557D1C7F02120E557F02120EED
:100BD600FDEF541CFF70F57F25120EFDEF540FF547
:100BE60050EFC45401F5517F26120EFDEF540FF558
:100BF6004EEFC45401F54F7F28120EFD8F527F2908
:0E0C0600120EFD8F53E54F60037F01227F0029
:010C140022BD
:100A5E007FB0120003E4FD7F35120E557D237F0219
:100A6E00120E557F02120EFDEF5423F54970F47FDE
:100A7E0014120BC4EF60037F01227F3C120BC4EFF4
:100A8E0060037F01227F64120BC4EF60037F01229B
:100A9E007FA01200037F23120EFD8F49E549540FEC
:100AAE00F54BE549C45401F54C7F24120EFD8F49D8
:100ABE00E549541FF54D7F1B120EFD8F4A7F1C1208
:100ACE000EFD78A5A64A08A607E54C60037F012215
:020ADE007F0097
:010AE00022F3
:10076C00754901120E4C0549E549D3940440F475C2
:10077C004907120E4C0549E549D3941F40F4E4F5A2
:10078C0049E5499006777F20120D7D0549E549D34F
:10079C00940C40EDE4F549E54990068493FDAB4992
:1007AC007F21120D810549E549D3940C40E9E4F50C
:1007BC0049E54990069193FDAB497F22120D8105C5
:1007CC0049E549D3940540E9754923120E4C054976
:1007DC00E549D3942940F4E4F549E549900697930B
:1007EC00FDAB497F2A120D810549E549D3940C4094
:1007FC00E975492B120E4C0549E549D3943540F463
:10080C0090066EE493FD7F37120E55E4F549E549E9
:10081C009006A47F38120D7D0549E549D3940B4011
:10082C00ED754939120E4C0549E549D3943C40F419
:0B083C00900675E493FD7F3E020E5510
:100EAC00C2837F3D120DE4E4FD900718120DE10D95
:050EBC00BD14F6D28315
:010EC100220E
:100E3300C2837F36120DE4E4FDED90070893FF12A1
:080E43000DE40DBD10F3D28394
:010E4B002284
:100E6400AD07AC06C2837F03120DE4AF05120DE497
:080E7400AF04120DE4D2832249
:1004E4009006ADE49344A0FD7B097F38120D817F13
:1004F40005120E7CC2837F7F120DE4E4FD120DC150
:1005040074492DF8A6070DBD08F3D2839006ADE417
:1005140093FD7B097F38120D81E549254AFFE433B9
:10052400FEEF654D7001EE702BE5496024E54A60ED
:10053400209006A5E49354E04549FD7B017F3812E1
:100544000D819006A6E49354C0454AFD7B02020641
:100554002E020633E549254AFFE433FE7C00EF25ED
:100564004BFFEC3EFEEF254CFFEC3EFEEF654D707D
:1005740001EE7059E5496053E54A604FE54B604B25
:10058400E54C60479006A5E49354E04549FD7B01A2
:100594007F38120D819006A6E49354C0454AFD7B32
:1005A400027F38120D81E54B25E025E0FF9006A47B
:1005B400E49354034FFDE4FB7F38120D819006A8A9
:1005C400E4935440454CFD7B04805F8062E54970B0
:1005D4005EE54A605AE54B6056E54C6052E54D7065
:1005E4004EE54F604A9006A5E49354E0454FFD7BE9
:1005F400017F38120D819006A6E49354C0454AFD4C
:100604007B027F38120D81E54B25E025E0FF900643
:10061400A4E49354034FFDE4FB7F38120D8190064C
:10062400A8E4935440454CFD7B047F38020D8112AD
:020634000F5164
:0106360022A1
:100B58007F1E120EFD8F0C78A6E6FCE41202CEC0B2
:100B680004C005C006C007AC0CE41202CED003D006
:100B780002D001D000120029C004C005C006C00779
:100B880078A6E6FF18E6C39FFDE49400FCE4120291
:100B9800C9A804A905AA06AB07D007D006D005D076
:100BA80004120227E4FBFA7940784112011EE4FBA3
:0B0BB800FA79A678C212002D12030289
:010BC300220F
:0A0F41007F80120003D280D28122CB
:0D0F1A007F27120EFDBFFF037F01227F0025
:010F270022A7
:100C61007D017F0B120E557D117F0C120E557D02F9
:100C71007F0A120E557D0B7F07120E557D0B7F08E3
:100C8100120E557D0C7F09120E55900638E49344DF
:100C910008FD7F01120E55A292B340FB7FB01200F6
:030CA1000380E7E6
:100D5A007D0F7F3A120E557D027F3B120E557D4064
:100D6A007F3C120E557D207F3E120E55E4FD7F3FDB
:030D7A00020E5511
:0C0F28007F3A120EFDEFC413135401FFBA
:010F3400229A
:10084700120D5A78A7E660657D017F0B120E557D64
:100857001D7F0C120E557D027F0A120E55120EC215
:10086700E478AEF608F678A8F608F678B1F608F652
:1008770078AA1204CB00000000E4F520D28CD2AF96
:100887007F40120D9F120F1AEF600280BB7FD012BC
:1008970000037F01120EEA2082FD120F28EF600588
:1008A70063B0048001007F05120E9480D37D017F21
:1008B7000B120E557D1D7F0C120E557D027F0A12FD
:1008C7000E55120EC2E478AEF608F678A8F608F6CA
:1008D70078B1F608F678AA1204CB00000000E4F518
:1008E70020D28CD2AF120F1AEF600280C07FC012E5
:1008F70000037F01120EEA2082FD120F28EF600825
:1009070063B004120AE18001007F04120E9480D5BF
:100E7C00AD071FED6011E4FEEEC3940C50F2E4FDDF
:070E8C000DBDDCFC0E80F13E
:010E9300223C
:100E9400AD071FED6011E4FEEEC3946A50F2E4FD69
:070EA4000DBDFAFC0E80F108
:010EAB002224
:100ED700AD071FED600CE4FEEEC3947850F2000EF0
:020EE70080F693
:010EE90022E6
:100EEA00AD071FED600CE4FEEEC3940950F2000E4C
:020EFA0080F680
:010EFC0022D3
:1000260002036EE86480F8E933E83360110460F097
:10003600ED33EC337009E8FCE9FDEAFEEBFF220440
:1000460060DED3EB9FEA9EE99DE8C2E78CF0C2F73B
:1000560095F0400CE8CCF8E9CDF9EACEFAEBCFFB07
:1000660012033985D0F05804700320D5B3E8047024
:10007600075002B2D502037892D5EC0460F7E4CCBF
:10008600C0E0C398F8603B94186008400DD0E0FBD0
:10009600020350E4FBFAC9FC8028E830E406E4C910
:1000A600FBE4CAFCE830E305E4C9CACBFCE8540724
:1000B6006010F8C3E913F9EA13FAEB13FBEC13FC2F
:1000C600D8F130F52FC3E49CFCEF9BFFEE9AFEEDD2
:1000D60099FDD0E0FBEF4E4D4C701222DB0302037C
:1000E60075EC2CFCEF33FFEE33FEED33FDED30E720
:1000F600EB020350EF2BFFEE3AFEED39FDD0E0FBAD
:1001060050130BBB0003020378ED13FDEE13FEEF55
:0801160013FFEC13FC0203507F
:10011E00EC4D6011E8497017ED33EC3304600DE4DB
:10012E00FCFFFEFD22E933E8330470F802036E1281
:10013E00033958046009E4CC248150062850090282
:10014E000378284003020375C0E0EB4A7044B9807F
:10015E0006D0E0FB020364EF4E701CBD8008EBFF7F
:10016E00EAFEE9FD80EBE98DF0A4FEE5F002020760
:10017E00E9CDF9EAFEEBFFEF89F0A4FCE5F0CE89BC
:10018E00F0A42EFFE435F0CD89F0A42DFEE435F079
:10019E008067EF4E7005BD80D780C3EF8BF0A4ACA7
:1001AE00F0EE8BF0A42CFCE435F0F8EF8AF0A42CE2
:1001BE00E5F038FCE433CB8DF0A42CFCE5F03BF8F5
:1001CE00EE8AF0A42CFCE5F038F8E433CF89F0A4E5
:1001DE002CFCE5F038CF3400CE89F0A42FFFE5F0EB
:1001EE003EFEE433C98DF0A42EFEE5F039CD8AF043
:1001FE00A42FFFE5F03EFEE43DFD33D0E0FB5007BB
:10020E000BBB000F020378EC2CFCEF33FFEE33FE3A
:06021E00ED33FD02035068
:10022400020378EC5D046005E85904700302036E70
:10023400120339580460F6EC4860F2EC7004FDFED9
:10024400FF22C860DB2481C85009C39860025006AD
:100254000203759850CAF582E9294B4A7005AB82AE
:1002640002036475F0007C1A7880C3EF9BEE9AED6C
:1002740099400DC3EF9BFFEE9AFEED99FDE842F025
:10028400DC23ACF0D0E0FFD0E0FED0E0FDAB822078
:10029400E7101BEB60BAEC2CFCEF33FFEE33FEED02
:1002A40033FD020350E803F830E705C0F075F000B1
:1002B400EF2FFFEE33FEED33FD40B830E7C280AAE6
:1002C40075F020800E75F010800575F0087D007EB5
:1002D400007F003392D530D5031204A4EC334010D0
:1002E400EF33FFEE33FEED33FDEC33FCD5F0ED22BE
:0E02F400E5F0247EA2D513CC92E7CDCEFF22FA
:10030200EDD2E7CD33EC3392D524814006E4FFFEF3
:10031200FDFC22FCE4CFCECDCC24E0501174FF8052
:10032200EDC3CC13CCCD13CDCE13CECF13CF0470EF
:07033200F030D5DE0204A447
:10033900E9D2E7C933E833F892D5EDD2E7CD33EC0A
:0703490033FC5002B2D52283
:10035000EC30E7100FBF000C0EBE00080DBD00040E
:100360000BEB6014A2D5EB13FCED92E7FD2274FFBA
:10037000FCFDFEFF22E480F8A2D574FF13FC7D8013
:03038000E480EF27
:03000000020F35B7
:0C0F3500787FE4F6D8FD7581B20209D87F
:10038300E709F608DFFA8046E709F208DFFA803E5C
:1003930088828C83E709F0A3DFFA8032E309F60849
:1003A300DFFA8078E309F208DFFA807088828C83B1
:1003B300E309F0A3DFFA806489828A83E0A3F60865
:1003C300DFFA805889828A83E0A3F208DFFA804C3F
:1003D30080D280FA80C680D4806980F28033801016
:1003E30080A680EA809A80A880DA80E280CA80337F
:1003F30089828A83ECFAE493A3C8C582C8CCC583F7
:10040300CCF0A3C8C582C8CCC583CCDFE9DEE780C6
:100413000D89828A83E493A3F608DFF9ECFAA9F045
:10042300EDFB2289828A83ECFAE0A3C8C582C8CC9B
:10043300C583CCF0A3C8C582C8CCC583CCDFEADEB4
:10044300E880DB89828A83E493A3F208DFF980CC16
:1004530088F0EF60010E4E60C388F0ED2402B4040F
:100463000050B9F582EB2402B4040050AF232345B6
:0604730082239003D37305
:10047900BB010689828A83E0225002E722BBFE0281
:09048900E32289828A83E49322B4
:10049200BB010689828A83F0225002F722BBFE0149
:0204A200F32243
:0E04A400C3E49FFFE49EFEE49DFDE49CFC2269
:0D04B200E6FB08E6F908E6FA08E6CBF822BA
:0C04BF00ECF608EDF608EEF608EFF62269
:1004CB00D083D082E493F608740193F608740293F8
:0904DB00F608740393F67404732F
:00000001FF
